:100000000C9410010C94BF050C9498050C94710588
:100010000C944A050C9438010C9438010C94230577
:100020000C9438010C9438010C94F1060C94BC0724
:100030000C9438010C9438010C9438010C9438015C
:100040000C9438010C9438010C9438010C9438014C
:100050000C9438010C9438010C9438010C94D90498
:100060000C9438010C9438010C9438010C9438012C
:100070000C9438010C9438010C9438010C9438011C
:100080000C9438010C9438010C9438010C9438010C
:100090000C9438010C9438010C9438010C943801FC
:1000A0000C9438010C9438010C943801B801BB0150
:1000B000AA01AE01B401DC01DC01DC01BF01C30116
:1000C000C701CD01D101DC01D701000000002400EF
:1000D00027002A002D003000000000002500280025
:1000E0002B002E0031000000000200090F00000369
:1000F0000401000C000000000000000000000000EF
:100100000000000000050C0901A10185051500256E
:100110000109EA09E975019502810609E295018163
:100120000609CD9501810609B59501810609B695A7
:1001300001810609B39501810609B4950181060A7A
:1001400083019501810695078107C0080B00020213
:100150000201000904000001020200000524001051
:1001600001052401010104240206052406000107FB
:1001700005810310004009040100020A0000000785
:100180000502024000000705830240000004030945
:100190000441726475696E6F204C4C430041726477
:1001A00075696E6F204C656F6E6172646F0012012D
:1001B00000020000004041233680000101020301DB
:1001C00012010002EF0201404123368000010102CA
:1001D000030104080201104080401020408040804C
:1001E00008020401804020100201108010204040CD
:1001F00020000000002300260029002C002F00040E
:1002000004040404030405020202020403020202BD
:100210000206060606060604040202020404230E71
:1002200011241FBECFEFDAE0DEBFCDBF11E0A0E0AA
:10023000B1E0E2E1FEE102C005900D92AA35B107FE
:10024000D9F722E0AAE5B1E001C01D92A637B207B6
:10025000E1F711E0C0E1D1E004C02197FE010E9466
:10026000FC0ECF30D107C9F70E94C80A0C94070FC3
:100270000C940000CF92DF92EF92FF920F931F93A6
:10028000CF93DF936C017A018B01C0E0D0E0CE15F3
:10029000DF0589F0D8016D918D01D601ED91FC91BA
:1002A0000190F081E02DC6010995892B11F47E01A2
:1002B00002C02196ECCFC701DF91CF911F910F9122
:1002C000FF90EF90DF90CF900895CF93DF931F9230
:1002D000CDB7DEB76983DC01ED91FC910280F3813B
:1002E000E02D41E050E0BE016F5F7F4F09950F9018
:1002F000DF91CF91089583E08093E9008091F2002F
:10030000882319F08AE38093E8000895FC0184852E
:10031000958597FD0BC09FB7F89482E08093E90024
:100320008091F2009FBF90E0019608959FB7F894E6
:1003300082E08093E9008091F2009FBF90E00895F1
:1003400090E0FC013197EF30F105B0F5EA5AFF4F2C
:100350000C94FC0E809180008F7703C08091800008
:100360008F7D80938000089580918000877FF9CFF2
:1003700084B58F7702C084B58F7D84BD0895809148
:1003800090008F7707C0809190008F7D03C080918F
:100390009000877F8093900008958091C0008F77B0
:1003A00003C08091C0008F7D8093C000089580912C
:1003B000C200877F8093C2000895CF93DF93282FD8
:1003C00030E0F901EA51FF4F8491F901EE52FE4FFE
:1003D000D491F901E150FE4FC491CC2391F08111E9
:1003E0000E94A001EC2FF0E0EE0FFF1FEF50FE4F38
:1003F000A591B491EC91ED2381E090E021F480E0AF
:1004000002C080E090E0DF91CF910895862F0C9498
:10041000DD011F93CF93DF93282F30E0F901EA51DC
:10042000FF4F8491F901EE52FE4FD491F901E15052
:10043000FE4FC491CC23C9F0162F81110E94A00158
:10044000EC2FF0E0EE0FFF1FE852FF4FA591B491A3
:100450008FB7F894111105C09C91ED2FE095E92319
:1004600002C0EC91ED2BEC938FBFDF91CF911F91E8
:100470000895862F642F0C9409020895DC01FB0176
:1004800012968C91129790E0248135818217930700
:10049000D1F491818081813A31F481E0913091F001
:1004A000933089F411C0813271F49B3021F4828140
:1004B0001F968C9305C09A3031F4828150968C93AC
:1004C00081E00895089580E00895DC01FB0188E44F
:1004D000808389E4818384E482831D969C911D97A7
:1004E0009F709F5B93831D968D919C911E9724E036
:1004F000969587952A95E1F78F708F5B848385E0C9
:100500000895FC0182818F5BFB01808381E0089567
:10051000EBE9F1E0108211820895DC01ED91FD918B
:100520008081ED91FD919081ED91FD916C916370D1
:100530008E2309F064609F2309F06860EAEAF2E024
:10054000E60FF11D659565956D936D917D918D918A
:100550009D91099423C01AC012C016C010C01EC0BD
:1005600009C014C013C006C019C009C00DC007C01F
:100570000DC014C062507040804090400BC061506C
:1005800070408040904006C06E5F01C06F5F7F4F3B
:100590008F4F9F4F9E938E937E936E93089580917D
:1005A000F3019091F4010C948D028091F1019091EE
:1005B000F2010C948D028091EF019091F0010C9466
:1005C0008D028091ED019091EE010C948D02CF93FC
:1005D000DF93EC0180911C01882331F083E00E94BD
:1005E000F9091816190634F081E090E09B838A839C
:1005F00080E090E0DF91CF910895CF93DF931F9239
:10060000CDB7DEB7FC018485958597FD05C02FEF3A
:100610003FEF358724870BC0CE0101960E94C706A5
:10062000019719F4898190E002C08FEF9FEF0F903E
:10063000DF91CF9108950F931F93CF93DF931F9274
:10064000CDB7DEB78C01FC018485958597FF0EC080
:10065000CE0101960E94C706019719F4298130E066
:1006600002C02FEF3FEFF80135872487F80184851A
:1006700095850F90DF91CF911F910F9108950E9462
:10068000020FEF92FF920F931F93CF93DF93FB0123
:100690002081213851F52381223239F5DC0112966F
:1006A0002C9130E04481558142175307F1F4EC015D
:1006B0000B851C85E12CF12C0115110591F0F80139
:1006C000448155816281738180E80E9463078F3F76
:1006D000FFEF9F0769F0E80EF91ED8010D911C91FC
:1006E000EBCF81E08F87C70105C080E090E002C0BA
:1006F0008FEF9FEFDF91CF911F910F91FF90EF90C0
:100700000895CF93DF93CDB7DEB769970FB6F8940E
:10071000DEBF0FBECDBFFC01DB018C918F5F8C93E0
:10072000BE016F5F7F4F89E1DB011D928A95E9F77A
:1007300029E0298384E08A8391E09D8383E08E838E
:100740002A8721E22B879C879D879F8722E2288B1F
:1007500027E02B8B25E02C8B8E8B20E430E0388F2C
:100760002F8B998F82818B8395858685998B8A8B38
:10077000838180688D8B49E150E080E00E946307AF
:1007800069960FB6F894DEBF0FBECDBFDF91CF9153
:100790000895615030F02091F100FC012083019612
:1007A000F8CF28988AE080939901089580918E016E
:1007B00081110DC082E080938A0184E080938B01D7
:1007C00010928D0110928C0181E080938E018AE855
:1007D00091E0089580916B0181116BC081E080935D
:1007E0005E0180935F0124E631E030936101209344
:1007F000600110926301109262012FE231E03093A8
:100800005B0120935A0110926601109265011092CB
:100810006801109267018093690180936A0181ECFD
:10082000809364010E94D603FC01218180915E01C6
:1008300090E0820F911D089724F081E080936B0176
:1008400038C0A281B381109729F48AE591E093839F
:1008500082830EC018968D919C911997009711F084
:10086000DC01F8CF8AE591E019969C938E93189756
:10087000808180935C01818180935D019081809172
:100880005F01890F808380E090915E018917A8F64F
:10089000A0916001B0916101A80FB11D9C91A1814F
:1008A000B0E0A65FBE4F9C9391819F5F91838F5F65
:1008B000EBCF8AE591E0089580939B010E94EA03C3
:1008C0000E949B0A0E9488020E94EA030C949B0AE1
:1008D000CF93DF9390E0FC01EE52FE4F2491FC0198
:1008E000E150FE4F8491882361F190E0880F991FB9
:1008F000FC01E653FF4FC591D491FC01E852FF4F34
:10090000A591B491611109C09FB7F8948881209591
:1009100082238883EC912E230BC0623061F49FB751
:10092000F8943881822F809583238883EC912E2B35
:100930002C939FBF06C08FB7F894E8812E2B288395
:100940008FBFDF91CF910895862F642F0C94680498
:100950003FB7F8948091780190917901A0917A0144
:10096000B0917B0126B5A89B05C02F3F19F00196D9
:10097000A11DB11D3FBFBA2FA92F982F8827820F25
:10098000911DA11DB11DBC01CD0142E0660F771F75
:10099000881F991F4A95D1F708952FB7F894609151
:1009A00074017091750180917601909177012FBF4C
:1009B00008951F920F920FB60F9211242F933F9319
:1009C0008F939F93AF93BF93809174019091750122
:1009D000A0917601B09177013091730123E0230F4C
:1009E0002D3720F40196A11DB11D05C026E8230F67
:1009F0000296A11DB11D2093730180937401909301
:100A00007501A0937601B093770180917801909160
:100A10007901A0917A01B0917B010196A11DB11DD0
:100A20008093780190937901A0937A01B0937B0130
:100A3000BF91AF919F918F913F912F910F900FBEDA
:100A40000F901F9018951F920F920FB60F921124BE
:100A50002F933F934F935F936F937F938F939F93C6
:100A6000AF93BF93EF93FF93E0910801F0910901D9
:100A70000995FF91EF91BF91AF919F918F917F91D8
:100A80006F915F914F913F912F910F900FBE0F90FB
:100A90001F9018951F920F920FB60F9211242F934B
:100AA0003F934F935F936F937F938F939F93AF93F6
:100AB000BF93EF93FF93E0910601F0910701099531
:100AC000FF91EF91BF91AF919F918F917F916F9126
:100AD0005F914F913F912F910F900FBE0F901F90FC
:100AE00018951F920F920FB60F9211242F933F93D8
:100AF0004F935F936F937F938F939F93AF93BF9326
:100B0000EF93FF93E0910401F09105010995FF91A6
:100B1000EF91BF91AF919F918F917F916F915F9175
:100B20004F913F912F910F900FBE0F901F901895EE
:100B30001F920F920FB60F9211242F933F934F9352
:100B40005F936F937F938F939F93AF93BF93EF9335
:100B5000FF93E0910201F09103010995FF91EF915C
:100B6000BF91AF919F918F917F916F915F914F91C5
:100B70003F912F910F900FBE0F901F9018951F92CD
:100B80000F920FB60F9211242F933F934F935F93C1
:100B90006F937F938F939F93AF93BF93EF93FF9345
:100BA000E0910001F09101010995FF91EF91BF9152
:100BB000AF919F918F917F916F915F914F913F91F5
:100BC0002F910F900FBE0F901F90189596E0899F60
:100BD000D0011124AB50BE4F90967C936E935F97DB
:100BE00091E091969C93919790916102E0916202BD
:100BF000F0916302992339F0309751F0811108C0C8
:100C00008091110204C0309719F05C968C91099480
:100C100008954091730250917402209171023091B5
:100C2000720242175307B4F49091E8009570E1F313
:100C30009091E80092FD19C08093F10080917302B9
:100C40009091740201968F739927892B19F48EEF76
:100C50008093E800809173029091740201969093C2
:100C600074028093730281E0089580E00895CF922A
:100C7000DF92EF92FF920E94A8046B017C010E9418
:100C8000A804DC01CB018C199D09AE09BF09883E7F
:100C90009340A105B10598F3FF90EF90DF90CF90BE
:100CA0000895BC01009791F0FC0101900020E9F744
:100CB0003197AF01481B590BE0919D01F0919E01C6
:100CC0000280F381E02D8DE991E0099480E090E0CD
:100CD00008950F931F93CF93DF93C82FD62F86E0ED
:100CE000C89FF0011124EB50FE4F11A2878D90A1F7
:100CF00081309105F1F01CF4892B49F043C082301A
:100D00009105A9F10397F1F560E070E034C0662326
:100D1000C9F161E070E08C2F0E94E6050E94CD04CD
:100D200060934D0270934E0280934F029093500255
:100D300029C00E94CD0400914D0210914E022091D5
:100D40004F0230915002AB01BC01401B510B620BB2
:100D5000730B80915F0290916002A0E0B0E0841775
:100D60009507A607B70718F462E070E004C0D11138
:100D700009C063E070E08C2FDF91CF911F910F913C
:100D80000C94E605DF91CF911F910F910895FC011E
:100D900080919A01811103C08FEF9FEF08959FB753
:100DA000F89482E08093E9002091F20030E012167E
:100DB000130614F421E030E02115310559F028988C
:100DC0008AE0809399018091F10080838091F20004
:100DD000882319F09FBFC90108958BE68093E8002E
:100DE000F9CF1F920F920FB60F9211248F939F93FA
:100DF0008091E1009091E100937F9093E10083FF67
:100E00000FC01092E90091E09093EB001092EC007B
:100E100092E39093ED0010929A0198E09093F00085
:100E200082FF20C093E09093E9009091F200992313
:100E300019F09AE39093E80090917502992339F0A4
:100E400090917502915090937502992389F1909138
:100E50009901992339F090919901915090939901BA
:100E6000992341F184FF10C08091E2008E7E816061
:100E70008093E2008091E1008F7E8093E100809179
:100E800098018E7E806111C080FF16C08091E200C3
:100E90008E7E80618093E2008091E1008E7E80935F
:100EA000E100809198018E7E81608093980104C05A
:100EB0005D9ACDCF289AD6CF9F918F910F900FBE7C
:100EC0000F901F901895DF92EF92FF920F931F9350
:100ED000CF93DF93D82E8A017B01E40EF51EEB0140
:100EE000CE15DF0571F0D7FE03C0FE01849101C06D
:100EF00088810E94090621968111F2CF8FEF9FEF22
:100F000001C0C801DF91CF911F910F91FF90EF9029
:100F1000DF9008950F931F93CF93DF931F92CDB768
:100F2000DEB782E0898342E450E06BE471E080E860
:100F30000E9463070E94D603DC0112960D911C915A
:100F400013970115110569F0D801ED91FC9102800C
:100F5000F381E02DBE016F5F7F4FC801099597FFB8
:100F600007C089810F90DF91CF911F910F91089554
:100F7000F80100851185E5CF1F920F920FB60F92F1
:100F80001124CF92DF92EF92FF920F931F932F9332
:100F90003F934F935F936F937F938F939F93AF9301
:100FA000BF93EF93FF93CF93DF93CDB7DEB76C97EB
:100FB000DEBFCDBF1092E9008091E80083FFFAC147
:100FC00068E0CE0145960E94C90382EF8093E80055
:100FD0008D8987FF05C09091E80090FFFCCF03C08A
:100FE0009EEF9093E800982F907609F0C6C09E89F6
:100FF0002F89188D91110CC0803829F480919701A8
:101000008093F10002C01092F1001092F10047C1EC
:10101000422F50E0512B913051F4811140C14130A9
:10102000510509F03CC1809197018D7F0BC0933031
:1010300061F4811134C14130510509F030C1809112
:1010400097018260809397012AC1953041F4809185
:10105000E80080FFFCCF20682093E30020C1963099
:1010600009F05FC0EB8CFC8C1092E90010927402C6
:1010700010927302123091F5109272021092710266
:101080000E948A0799E0BE016F5F7F4FDB01E92F65
:101090001D92EA95E9F799831A8391E09E8390EA7D
:1010A00098879AEF99872091730230917402275F95
:1010B0003F4F3C832B838D831092E9001092740282
:1010C00010927302F0927202E092710249E050E0D5
:1010D00080E00E9463070E948A07E1C0F0927202DA
:1010E000E09271020E94D603DC011296ED90FC9012
:1010F0001397E114F10409F4C0C0D701ED91FC91FC
:101100000480F581E02DBE016B5E7F4FC70109951C
:10111000009719F00CF0C3C0C6C0F701E084F18459
:10112000E8CF973009F4BFC0983021F481E0809374
:10113000F100B5C0993009F0B2C0837009F0B3C0B6
:10114000EBE0F1E081E021E036E39081992361F06A
:101150008093E9002093EB0091919093EC00309301
:10116000ED008F5F873089F78EE78093EA00109259
:10117000EA008F8980939A0192C08B8D9C8D10928A
:10118000E90010927402109273029093720280939D
:101190007102898D811156C08E899D89913A59F4C9
:1011A000813209F080C047E050E065E171E080E005
:1011B0000E94630774C0913209F075C0833289F4CC
:1011C000888D90E0982F88272F89822BA0E0B0E0AF
:1011D0008093110190931201A0931301B093140115
:1011E0005EC0803269F48091E80082FFFCCF67E046
:1011F00085E191E00E94C9038BEF8093E80006C06F
:10120000823209F04CC08F8980931C018091960135
:10121000882319F0EEEFFAE002C0E0E0F8E08091F8
:10122000150190911601A0911701B0911801803B12
:101230009440A105B10509F088C080911C0180FF90
:10124000A0C083C00E94D603DC0112960D911C91B0
:1012500013970115110539F1D801ED91FC91019019
:10126000F081E02DBE016B5E7F4FC80109958111B1
:1012700016C0F80100851185ECCF1130C1F0133094
:1012800091F48F89882309F455C08230E9F440E84D
:1012900060E18DE991E00E94E60D882321F08EEF58
:1012A0008093E80087C081E28093EB0083C08B8D40
:1012B0009C8D089711F41093700280917002811137
:1012C00036C06EEA71E038C0813029F440E86BE046
:1012D00081E991E0E0CF833031F70E94D603DC0151
:1012E0001296ED90FC9013978E010F5F1F4F6801CF
:1012F000E114F10479F0D701ED91FC910680F781BA
:10130000E02DB801C7010995080F111DF701E08410
:10131000F184EECFD8011C92F60101900020E9F78C
:101320003197BF016C197D0940E0C601B4CF60EC74
:1013300071E002C06DE871E06115710509F4B3CF89
:10134000FB01449150E080E833CF0FB6F894A895A4
:1013500080916000886180936000109260000FBEF1
:10136000A895EE3F2AE0F20739F08091FE0A9091AD
:10137000FF0A9183808393CF1092FF0A1092FE0A96
:101380008ECFEE3F8AE0F80731F080819181909313
:10139000FF0A8093FE0A87E797E7918380839BE0AB
:1013A00088E10FB6F894A895809360000FBE9093E3
:1013B000600075CF6C960FB6F894DEBF0FBECDBF40
:1013C000DF91CF91FF91EF91BF91AF919F918F915D
:1013D0007F916F915F914F913F912F911F910F914D
:1013E000FF90EF90DF90CF900F900FBE0F901F9067
:1013F00018958F929F92AF92BF92CF92DF92EF9209
:10140000FF920F931F93CF93DF9300D01F92CDB71E
:10141000DEB78B0190919A01911103C08FEF9FEF7E
:101420007AC09091980190FF05C09091E000926081
:101430009093E0004A019AEFF92E382F3770E32E8F
:101440002FE3C22E982F9072B92E3AE3D32E382F65
:101450003074A32E8114910409F454C09FB7F894FA
:10146000E092E9002091E80025FF06C02091F200FB
:101470003C2D321B232F01C020E09FBF21110CC047
:10148000FA94FF2059F24A835B8389830E943706CE
:101490004A815B818981DECF622F70E086169706D4
:1014A0000CF4282D9FB7F894E092E9003091E80001
:1014B00035FF26C0622F70E0861A970ABB2029F0FC
:1014C0002150A8F01092F100FBCFF80187FF07C070
:1014D000215058F034913093F1003196F9CF2150DA
:1014E00020F031913093F100FACF060F171F2091B1
:1014F000E80025FF0DC08114910411F4A11008C06B
:101500009FBFA8CF5D988AE080937502CA0103C08F
:10151000D092E800F5CF0F900F900F90DF91CF9110
:101520001F910F91FF90EF90DF90CF90BF90AF9001
:101530009F908F900895EF92FF920F931F93CF93F8
:10154000DF931F92CDB7DEB77C0185E0898341E050
:1015500050E0BE016F5F7F4FF70183810E94F90960
:101560008C0197FD0DC0F701838142E050E06BE9EB
:1015700071E080640E94F90997FD02C0800F911FFD
:101580000F90DF91CF911F910F91FF90EF900895F1
:10159000CF93DF93CDB7DEB7A5970FB6F894DEBF34
:1015A0000FBECDBF789484B5826084BD84B5816060
:1015B00084BD85B5826085BD85B5816085BD80911E
:1015C0006E00816080936E00109281008091810096
:1015D000826080938100809181008160809381008E
:1015E0008091800081608093800080919100826072
:1015F000809391008091910081608093910080910F
:1016000090008160809390008091C10084608093FD
:10161000C1008091C10082608093C1008091C100AF
:1016200081608093C1008091C30081608093C3007A
:101630008091C00082608093C0008091C200816070
:101640008093C20080917A00846080937A008091B8
:101650007A00826080937A0080917A008160809322
:101660007A0080917A00806880937A0010929A01C3
:1016700010929701109298018091D7008160809319
:10168000D70080EA8093D80089B5806189BD89B58B
:10169000826089BD09B400FEFDCF0E9437068091AB
:1016A000D8008F7C80618093D8008091E000807F9B
:1016B0008093E0008091E1008E7E8093E1008DE0D8
:1016C0008093E200559A209AEEEFFFE7859194917E
:1016D0008B3F9C4D19F481E08093960180918201AB
:1016E000811113C010927D0110927C0185E091E080
:1016F00090937F0180937E0186E490E09093810136
:101700008093800181E0809382010E94EA03FC01C2
:10171000A385B485109729F48CE791E0948783879B
:101720000BC08D919C911197009711F0DC01F9CFBE
:101730008CE791E08D939C9325853685809180017F
:1017400090918101820F931F968785870E9488025E
:101750008FEF9FEF9093AA018093A90107E311E017
:1017600061E0D8018D918D010E946804B1E00F33D2
:101770001B07B1F700E010E0E02F0430110510F076
:10178000EFEFE00F0E2E000CFF0BE95CFE4F60E068
:1017900080810E9409020F5F1F4F0830110561F719
:1017A000412C512C320143946AE0862E912CA12CBD
:1017B000B12C0E94880280916F02823030F4F8943C
:1017C00084E692E00E948D0201C0F894C0906B0202
:1017D000D0906C02E0906D02F0906E027894B701A8
:1017E000A6011416150616061706D4F481E04AA3BE
:1017F0005BA36CA37DA30E945C044AA15BA16CA1C6
:101800007DA14150510961097109F89440936B021F
:1018100050936C0260936D0270936E027894E1CFE6
:10182000D701C601F7FE03C080E090E0DC01C81AD2
:10183000D90AEA0AFB0AC114D104E104F10499F0BF
:1018400082E00E945C04EFEFCE1ADE0AEE0AFE0A86
:10185000F894C0926B02D0926C02E0926D02F0920A
:101860006E027894E8CF0E94CD040091510210914D
:1018700052022091530230915402AB01BC01401B33
:10188000510B620B730B80915D0290915E02A0E0A0
:10189000B0E084179507A607B70740F080E090E016
:1018A000892B09F486CF0E94000083CF10E080913D
:1018B0005B02181760F4E0915702F0915802E10FB3
:1018C000F11D62E080810E9468041F5FF0CFD12C7F
:1018D00080915C02D81608F065C00D2D10E0E091F3
:1018E0005902F0915A02E00FF11F61E080810E94DD
:1018F0006804E0915902F0915A02E00FF11F60E094
:1019000080810E940902D301C2010D2C04C0880FFE
:10191000991FAA1FBB1F0A94D2F79C011C01209497
:101920003094C12C80915B02C81628F5EC2CF12C68
:101930008091570290915802FC01EE0DFF1D8081AD
:101940002AA33BA30E94DD01F70134962AA13BA103
:10195000EE0FFF1FEB50FE4F892B29F48081918100
:10196000822B932B04C080819181822193219183CA
:101970008083C394D7CFE0915902F0915A02E00FCF
:10198000F11F61E080810E940902809159029091CB
:101990005A02FC01E00FF11F60E080810E946804A0
:1019A000D39496CF01E112E0F8018FEF9FEF2381EE
:1019B0003481232B21F41082928381831582369601
:1019C00022E0ED34F20799F7E12C36E0332E8091D6
:1019D0005B02E81608F056C0F12CCE2CD12CC601C3
:1019E000880F991FFC01E350FE4F6F0120915C02AC
:1019F000F21608F045C0D6016D917C910F2C02C003
:101A0000769567950A94E2F761707727E29E9001D8
:101A100011242F0D311DE0915502F0915602E20F75
:101A2000F31FA081E5EFF1E080E0458D568D421770
:101A3000530711F461701AC08F5F36968A30A9F788
:101A4000672BE1F0E1E1F2E080E090E040814111BC
:101A500010C0389EF001399EF00D1124EB50FE4F5E
:101A6000A48F368F258F10A2178E61E00E94690621
:101A700005C0019636968A30910541F7F394B6CFAA
:101A8000E394A5CF80E090E0F12CFC01EB50FE4FF9
:101A900021A1222311F0FF24F39406968C339105A3
:101AA000A1F70E94CD04609351027093520280937B
:101AB000530290935402FF2009F4F0CED8011596FA
:101AC0008C911597882309F479C013968D919C9178
:101AD00014978130910521F0039709F460C06EC01E
:101AE000F80180810E945C04D8011196EC91E430E9
:101AF0000CF0E1500E2E000CFF0BE95CFE4F61E094
:101B000080810E940902F801C180D2800D2C000C56
:101B1000EE08FF08F7FE26C0E0919D01F0919E01BE
:101B20000190F081E02D6DE28DE991E00995222789
:101B30003327A9012C193D094E095F0919A2CE01CD
:101B400081967C01CA01B901A50194010E94DA0EB7
:101B5000605DD7016E937D01211531054105510569
:101B600089F715C0A701960119A2FE01B1967F0160
:101B7000CA01B901A50194010E94DA0E605DD70186
:101B80006E937D01211531054105510589F7C70186
:101B90000E94510687E591E00E9451060FC0D801CE
:101BA0001196EC91E4300CF0E1500E2E000CFF0B7E
:101BB000E95CFE4F60E080810E9409020A5F1F4FCE
:101BC000B2E00D341B0709F079CF68CECF92DF92D7
:101BD000EF92FF920F931F93CF93DF931F92CDB796
:101BE000DEB7182F062FE42E862F880F8E5F99837D
:101BF0000E94090683E00E940906F12EC12E9981F8
:101C0000D92E8C2D8F19801798F4F601E7FE02C0AB
:101C1000849101C080810E940906182F80E00E94F3
:101C200009068123FFEFCF1ADF0A8111EACF01C035
:101C300081E00F90DF91CF911F910F91FF90EF9076
:101C4000DF90CF900895CF93DF931092A001109270
:101C50009F0188EE93E0A0E0B0E08093A101909313
:101C6000A201A093A301B093A40181E491E0909319
:101C70009E0180939D018FEF9FEF9093AA01809327
:101C8000A90162E088E00E94680462E089E00E94A5
:101C90006804E7E0F2E0E491F0E0EE0FFF1FEF50A0
:101CA000FE4FA591B491B0936502A0936402EAED52
:101CB000F1E0849180936802E8E0F2E0E491F0E0E2
:101CC000EE0FFF1FEF50FE4FC591D491D0936702E6
:101CD000C0936602EBEDF1E0E491E09369021092AB
:101CE0006B0210926C0210926D0210926E02EBE386
:101CF000FFE13197F1F7EC91E82381E009F480E00E
:101D0000288190916902922309F0826080936A028F
:101D100010926F021092F7011092FB011092FA01DB
:101D20001092FC0181E591E09093F6018093F5011A
:101D300080E090E0FC01EB50FE4F148E10A2178E55
:101D400011A206968C339105A9F781E291E0909358
:101D50005802809357028DE191E090935A0280934C
:101D6000590282E080935B0284E080935C0283E20C
:101D700091E090935602809355028AE090E0909310
:101D80005E0280935D0284EF91E090936002809305
:101D90005F0210926302109262021092510210923E
:101DA0005202109253021092540210926102DF917B
:101DB000CF910895A1E21A2EAA1BBB1BFD010DC0F5
:101DC000AA1FBB1FEE1FFF1FA217B307E407F507EB
:101DD00020F0A21BB30BE40BF50B661F771F881FC7
:101DE000991F1A9469F760957095809590959B015D
:101DF000AC01BD01CF010895EE0FFF1F0590F491D6
:101E0000E02D099481E090E0F8940C94070FF89489
:021E1000FFCF02
:101E12003D023D023D023D023D0200C180810000C3
:101E220000FFFFFFFF00E10000000000000F0E10A6
:101E320003150A0480400020081004000000003E40
:101E42000281034103650201000212131400000023
:101E5200006501E7028601FD021B037B0100000011
:0A1E620000A404390206020D0A0074
:00000001FF
